:100000000C948B000C94B3000C94B3000C94BD06BC
:100010000C94BD060C94BD060C94B3000C94B30074
:100020000C94B3000C94B3000C94B3000C943507FB
:100030000C94B3000C94B3000C94B3000C94B30074
:100040000C9473060C94B3000C9441060C941B069C
:100050000C94B3000C94B3000C94B3000C94B30054
:100060000C94B3000C94B30000000000240027009F
:100070002A0000000008000201000003040700003D
:10008000000000000000322E506C6561736520692D
:100090006E736572742074686520534420636172C6
:1000A000642100312E506C65617365207265636850
:1000B00065636B2074686520636F6E6E6563746939
:1000C0006F6E2100556E61626C6520746F206265F1
:1000D00067696E3A00000000002300260029000036
:1000E000000000250028002B00040404040404047C
:1000F00004020202020202030303030303010204D7
:100100000810204080010204081020010204081099
:100110002000010A320F11241FBECFEFD8E0DEBF4E
:10012000CDBF11E0A0E0B1E0E2E6F4E202C005904C
:100130000D92A038B107D9F722E0A0E8B1E001C0E4
:100140001D92A53DB207E1F710E0CAE8D0E004C077
:100150002197FE010E94F910C938D107C9F70E9402
:10016000360B0C9424120C940000CF9380918C02D7
:1001700090918D02DC01ED91FC910084F185E02DE0
:100180000995892B09F4D0C080918C0290918D0241
:10019000DC01ED91FC910284F385E02D2091AA020F
:1001A00021110DC00995809396028E37F9F61092B1
:1001B000B0028091AA028F5F8093AA02D7CF0995DF
:1001C0009091AA02E92FF0E0E457FD4F8287923028
:1001D000A9F0993011F1913009F0A2C08F3F09F4D4
:1001E0009FC01092AA029093AC021092AF0210929C
:1001F000AE029093B0021092B10275C0863009F43D
:100200008FC01092AA0281E08093AC021092AF02DC
:100210001092AE028093B002EECF8F3E91F78091A4
:10022000980290919702890F9927991FE09199025E
:100230009C012E0F311D80919A02820F932F911DE8
:1002400040919B0250E0840F951F20919C0230E06A
:1002500060919D0270E0762F6627F0919E026F0FED
:10026000711D820F931F9195819591091092AA0299
:100270006817790741F6E093AD02942F8827820F23
:10028000931F9093AF028093AE02EA53E63108F0D9
:100290003BC0F0E0E25BFE4F0C94F9107A017E0166
:1002A000670164016701760182018D0167016701C1
:1002B00067016701670167016701670184016701E1
:1002C000670167016701670185E08093AC0281E007
:1002D0008093B002C091B002CC2329F08091A40297
:1002E000882309F488CF8C2FCF91089581FFF2CF16
:1002F00084E0EBCF81FFEECF82E0E7CF81FFEACF52
:1003000083E0E3CF86E0E1CF81E08093AC021092FE
:10031000AF021092AE028093B0021092B102DACF17
:100320009F5F9093AA0222CF8091B102882371F13E
:100330002FB7F8948091D1019091D201A091D3016F
:10034000B091D4012FBF40918E0250918F026091E5
:10035000900270919102841B950BA60BB70B4091F4
:1003600092025091930260919402709195028417C9
:100370009507A607B70750F01092AA021092AC0298
:100380001092AF021092AE0281E044CFC091B00251
:10039000AACFEF92FF920F931F93CF93DF938C011D
:1003A0007B01D0E0C0E0F701EC0FFD1F64916623F4
:1003B00061F0D801ED91FC910190F081E02DC80130
:1003C0000995892B11F02196EECFCE01DF91CF91C7
:1003D0001F910F91FF90EF900895AF92BF92CF922F
:1003E000DF92EF92FF920F931F93CF93DF936C01F5
:1003F0007B018B01040F151FEB015E01AE18BF08D6
:10040000C017D10759F06991D601ED91FC91019087
:10041000F081E02DC6010995892B79F7C501DF919F
:10042000CF911F910F91FF90EF90DF90CF90BF90F1
:10043000AF900895FC01538D448D252F30E0842F1B
:1004400090E0821B930B541710F0CF9608950197FC
:100450000895FC01918D828D981761F0A28DAE0FE9
:10046000BF2FB11D5D968C91928D9F5F9F73928F70
:1004700090E008958FEF9FEF0895FC01918D828D9C
:10048000981731F0828DE80FF11D858D90E0089569
:100490008FEF9FEF0895FC01918D228D892F90E0C1
:1004A000805C9F4F821B91098F739927089585ED7A
:1004B00091E00E944B0221E0892B09F420E0822F79
:1004C000089580E090E0892B29F00E945702811165
:1004D0000C9400000895FC01A48DA80FB92FB11D44
:1004E000A35ABF4F2C91848D90E001968F7399276A
:1004F000848FA689B7892C93A089B1898C91837048
:1005000080648C93938D848D981306C00288F38940
:10051000E02D80818F7D80830895EF92FF920F936D
:100520001F93CF93DF93EC0181E0888F9B8D8C8D9F
:1005300098131AC0E889F989808185FF15C09FB793
:10054000F894EE89FF896083E889F9898081837056
:10055000806480839FBF81E090E0DF91CF911F9105
:100560000F91FF90EF900895F62E0B8D10E00F5F26
:100570001F4F0F731127E02E8C8D8E110CC00FB6FC
:1005800007FCFACFE889F989808185FFF5CFCE0194
:100590000E946B02F1CFEB8DEC0FFD2FF11DE35AA2
:1005A000FF4FF0829FB7F8940B8FEA89FB89808117
:1005B0008062CFCFCF93DF93EC01888D8823B9F091
:1005C000AA89BB89E889F9898C9185FD03C080815E
:1005D00086FD0DC00FB607FCF7CF8C9185FFF2CFDB
:1005E000808185FFEDCFCE010E946B02E9CFDF91C4
:1005F000CF910895833081F028F4813099F08230D2
:10060000A9F008958730A9F08830C9F08430B1F49A
:10061000809180008F7D03C0809180008F778093D0
:100620008000089584B58F7784BD089584B58F7D4B
:10063000FBCF8091B0008F778093B00008958091B8
:10064000B0008F7DF9CFCF93DF93282F30E0F901F1
:10065000EE58FF4F8491F901E350FF4FD491F90117
:10066000E751FF4FC491CC23A1F081110E94FA02FF
:10067000EC2FF0E0EE0FFF1FEB52FF4FA591B4916E
:10068000EC91ED2381E090E009F480E0DF91CF91DF
:10069000089580E090E0FACF1F93CF93DF93282F47
:1006A00030E0F901EE58FF4F8491F901E350FF4F1C
:1006B000D491F901E751FF4FC491CC23A9F0162F33
:1006C00081110E94FA02EC2FF0E0EE0FFF1FE152C1
:1006D000FF4FA591B4918FB7F894EC91111108C018
:1006E000D095DE23DC938FBFDF91CF911F910895CA
:1006F000DE2BF8CFCF93DF9390E0FC01E350FF4F68
:10070000249187519F4FFC0184918823C9F090E088
:10071000880F991FFC01E859FF4FA591B491FC0186
:10072000E152FF4FC591D49161110DC09FB7F8946C
:100730008C91209582238C938881282328839FBFC6
:10074000DF91CF910895623051F49FB7F8943C91B6
:10075000822F809583238C93E8812E2BEFCF8FB748
:10076000F894EC912E2B2C938FBFEACFCF93DF938D
:10077000C1E8D2E060E08A810E944C0361E08A8196
:100780000E947A0360E088810E944C0361E08881C6
:100790000E947A0361E089810E947A0361E08A8184
:1007A0000E944C038BE090E00197F1F7DF91CF912D
:1007B00008953FB7F8948091C1019091C201A09132
:1007C000C301B091C40126B5A89B05C02F3F19F005
:1007D0000196A11DB11D3FBFBA2FA92F982F8827C1
:1007E000BC01CD01620F711D811D911D42E0660F9C
:1007F000771F881F991F4A95D1F708958F929F926E
:10080000AF92BF92CF92DF92EF92FF924B015C01C9
:100810000E94D9036B017C010E94D9036C197D09E8
:100820008E099F09683E734081059105A8F321E078
:10083000821A9108A108B10888EEC80E83E0D81E7C
:10084000E11CF11C81149104A104B10429F7FF906B
:10085000EF90DF90CF90BF90AF909F908F900895D2
:100860008093A302272F30E07093A5026093A60225
:100870004091A2029091A102490F5527551F840F64
:10088000952F911D4091A402840F911D820F931FFB
:10089000680F792F711D7195619571097093A70289
:1008A0006093A802442339F08091B102882349F073
:1008B0000E94B500F9CF6AE070E080E090E00E940D
:1008C000FE0380918C0290918D02DC01ED91FC91F0
:1008D0000280F381E02D4AE050E060EA72E0099581
:1008E0002FB7F8948091D1019091D201A091D301BA
:1008F000B091D4012FBF80938E0290938F02A0936A
:100900009002B093910281E09091A402911101C0F4
:1009100080E08093B1020895BC0182E10C94300420
:100920002091C7013091C8012817390771F49091BF
:10093000C5018091C601981741F0E091C501F0E032
:10094000E058FE4F808190E008958FEF9FEF08956B
:100950000895EF92FF920F931F93CF93DF93DC01E3
:100960005C96ED90FC905D97E114F10479F481E0E0
:1009700090E013969C938E93129790E080E0DF9125
:10098000CF911F910F91FF90EF9008955196ED91A7
:10099000FC91529750968C915097982F90950FB745
:1009A0005E962C915E97122F127021FD6095F8943F
:1009B0002081112319F1282B2083E7012197F1F7DA
:1009C00028E0462F50E0308160FF1AC0382B30837A
:1009D000E7012197F1F7BA0175956795215089F7DD
:1009E000112381F08081892380830FBF5C968D91D4
:1009F0009C910197F1F781E090E0C1CF2923DCCFF2
:100A00003923E5CF9081892BEFCF2091C701309119
:100A1000C8012817390761F48091C6012091C501EA
:100A200090E0805C9F4F821B91098F7399270895F6
:100A300090E080E008952091C7013091C801281707
:100A40003907B9F49091C5018091C601981789F0D2
:100A5000E091C501F0E0E058FE4F80812091C50192
:100A600030E02F5F3F4F2F7333272093C50190E075
:100A700008958FEF9FEF089590E080E00895FF9232
:100A80000F931F93CF93DF93F62ED0E0C0E0082F93
:100A900010E0B8010C2E02C0759567950A94E2F734
:100AA0006170809182020E944C0361E0809181021A
:100AB0000E944C0360E0FF2089F0C730D10571F43B
:100AC000809182020E947A032196C830D10509F7ED
:100AD000DF91CF911F910F91FF9008958091810236
:100AE0000E944C03F1CFCF93C82F0E94B60360E061
:100AF0008C2F0E943F0560E080E00E943F0560E08F
:100B0000809183020E944C038BE090E00197F1F703
:100B1000CF910895FC0101900020E9F73197AF01D2
:100B2000481B590BBC0185ED91E00C94ED01CF936E
:100B3000DF93BC0185ED91E00E94C901EC0184E3E3
:100B400091E00E948A058C0F9D1FDF91CF9108953F
:100B50008F929F92AF92BF920F931F93CF93DF9389
:100B6000CDB7DEB7A1970FB6F894DEBF0FBECDBFED
:100B700019A2423008F44AE08E010F5D1F4F842E07
:100B8000912CB12CA12CA50194010E94B810E62F44
:100B9000B901CA01EA30F4F4E05DD801EE938D01A9
:100BA000232B242B252B79F790E080E0109719F068
:100BB000CD010E948A05A1960FB6F894DEBF0FBE44
:100BC000CDBFDF91CF911F910F91BF90AF909F90BC
:100BD0008F900895E95CE1CFCF92DF92EF92FF9280
:100BE000CF93DF936B017C016DE285ED91E00E9474
:100BF0008D02EC0166277727CB016C197D098E09E0
:100C00009F094AE00E94A8058C0F9D1FDF91CF919C
:100C1000FF90EF90DF90CF900895CF93DF930E94E5
:100C20008A05EC0184E391E00E948A058C0F9D1FE8
:100C3000DF91CF9108951F920F920FB60F9211245A
:100C40002F933F934F935F936F937F938F939F93D4
:100C5000AF93BF93EF93FF9385ED91E00E946B02FA
:100C6000FF91EF91BF91AF919F918F917F916F9184
:100C70005F914F913F912F910F900FBE0F901F905A
:100C800018951F920F920FB60F9211242F938F93E6
:100C90009F93EF93FF93E091E501F091E60180814E
:100CA000E091EB01F091EC0182FD1BC090818091FD
:100CB000EE018F5F8F732091EF01821741F0E09179
:100CC000EE01F0E0EB52FE4F958F8093EE01FF9125
:100CD000EF919F918F912F910F900FBE0F901F90CA
:100CE00018958081F4CF1F920F920FB60F921124A6
:100CF0002F933F938F939F93AF93BF938091D10195
:100D00009091D201A091D301B091D4013091C00152
:100D100023E0230F2D3758F50196A11DB11D209317
:100D2000C0018093D1019093D201A093D301B093DD
:100D3000D4018091C1019091C201A091C301B091F1
:100D4000C4010196A11DB11D8093C1019093C20100
:100D5000A093C301B093C401BF91AF919F918F91B4
:100D60003F912F910F900FBE0F901F90189526E87E
:100D7000230F0296A11DB11DD2CF1F920F920FB665
:100D80000F9211242F933F934F935F936F937F9311
:100D90008F939F93AF93BF93EF93FF93E091C7011E
:100DA000F091C801309749F0A685B7858585968D65
:100DB00091FF14C09C918923A1F4FF91EF91BF9101
:100DC000AF919F918F917F916F915F914F913F91E3
:100DD0002F910F900FBE0F901F9018959C91892313
:100DE00061F7A389B4899C918589809589238C9327
:100DF000868997890197F1F7608D718DA685B785F2
:100E0000558538E020E0CB010197F1F7822F90E083
:100E100095958795282F4C91452309F020683150EE
:100E200091F7868D81FD20958091C60190E0019615
:100E30008F7399273091C501381799F0A091C60199
:100E4000B0E0A058BE4F2C938093C601828D938D45
:100E50000197F1F7A389B4898C919589892B8C939B
:100E6000ACCF868D8160868FF1CF1F920F920FB627
:100E70000F9211242F923F924F925F926F927F9226
:100E80008F929F92AF92BF92CF92DF92EF92FF929A
:100E90000F931F932F933F934F935F936F937F9382
:100EA0008F939F93AF93BF93EF93FF93CF93DF9372
:100EB00000D000D0CDB7DEB7F89420917202309107
:100EC00073023A83298330E020E050E040E0A981BA
:100ED000BA8111968C9111978417150611F10CF1B6
:100EE0001296ED91FC91E20FF31F80818E3008F095
:100EF0008E508770806480937C0080917A0080643B
:100F000080937A0080917A0086FDFCCF80917800F2
:100F100090917900918780874F5F5F4F245C3F4FAE
:100F2000D6CF312C212C10E000E050E6852E5AEE71
:100F3000952EA12CB12CE981FA81818180171106AF
:100F400009F00CF4EDC122813381220D331D3C8365
:100F50002B83D901D0964D905D906D907C90D39766
:100F6000F901808D918DA28DB38D480E591E6A1E98
:100F70007B1E40AA51AA62AA73AA84899589A68970
:100F8000B7897201E81AF90A868597850C979787C1
:100F900086878685978597FDC2C086859785873F1A
:100FA00099400CF0BFC0D9011E968D919C91EB81A8
:100FB000FC819787868780859185C0ACD1AC8C15E4
:100FC0009D05CCF48285938565E070E00E94A410B5
:100FD000CB01880F991F680F791F6E157F055CF490
:100FE0002085318586A997A92817390724F480859B
:100FF000918597AB86ABAB81BC8118968D919C9106
:101000001997C816D9069CF418962D913C911997FA
:10101000D4968D919C91D5978217930744F4189696
:101020008D919C911997D5969C938E93D497BBEFF5
:10103000EB16F1040CF4ACC0EB81FC81808591854A
:10104000C816D9060CF0A4C084858111A1C0828580
:10105000938565E070E00E94A410CB01880F991F72
:10106000680F791F6E157F050CF092C021E0248770
:1010700084899589A689B789F201E81BF90BAB81B0
:10108000BC811B96FC93EE931A97FD01448A558A06
:10109000668A778A83AD882371F013AE7C96CD0182
:1010A000C096AB81BC811A962D913C9121933193CE
:1010B0008E179F07B1F7EB81FC8182AD8823A9F1E0
:1010C00012AE21E023AFAB81BC8112968D919C9131
:1010D000139797FD08C01C962C9161E0211101C067
:1010E00060E00E944C03EB81FC81E480F580F7FC1A
:1010F000EDC0868597856AE070E00E94A4107C832D
:101100006B8361E08E2D0E947A032B813C81232B1F
:1011100009F0ACC060E08E2D0E944C03D7C090E077
:1011200080E045CF86EF99E042CFEB81FC817C9651
:101130004B815C81425D5F4F30E020E08281938192
:1011400081939193280F391F4E175F07B9F7AB8131
:10115000BC811A968D919C911B979F969C938E9320
:101160009E97820F931F6AE070E00E9490109B018F
:1011700050E040E0C501B4010E94DA10EB81FC812F
:101180003783268321E0258786EF99E09787868736
:10119000AB81BC8118968D919C9119978C159D05FA
:1011A0003CF51C968C911C97882311F11C961C927F
:1011B0001C97D6964D915C91D797D4962D913C91E2
:1011C000D597241B350B53963C932E9352975296EA
:1011D0008D919C9197FD019695958795840F951F0C
:1011E000EB81FC8191AF80AF95AB84AB97AB86ABC5
:1011F000F5ECEF16F9E0FF060CF465CFAB81BC818E
:1012000050968D919C915197D9969C938E93D89797
:10121000E0E0F2E0D596FC93EE93D497D796FC935A
:10122000EE93D69754964D925D926D927C9257971D
:10123000E1E0DA96EC93DA97DB961C92DB971D9649
:101240001C921D9717961C921E92169728E532E065
:101250001B963C932E931A971C961C921C9784E61F
:1012600090E053969C938E9352972DCF8B819C81C7
:101270008F3F910511F461E04ECFF701FF27EE5843
:10128000FF4FE491E33071F150F4E130D1F0E230FE
:1012900019F1AB81BC81A038B1056CF73BCFE730C9
:1012A00069F1E830A1F1E430A1F78091800080621B
:1012B000809380002B813C8130938B0020938A00A7
:1012C00005C084B5806884BD9B8197BD0F5F1F4FAB
:1012D000BCE32B0E311C2FCE84B5806284BDAB8164
:1012E000A8BDF4CF80918000806880938000EB815E
:1012F000FC81F0938900E0938800E8CF8091B000F2
:1013000080688093B0003B813093B300DFCF809141
:10131000B00080628093B0008B818093B400D6CF00
:1013200081E0E981FA81808778940F900F900F9087
:101330000F90DF91CF91FF91EF91BF91AF919F916E
:101340008F917F916F915F914F913F912F911F915D
:101350000F91FF90EF90DF90CF90BF90AF909F9054
:101360008F907F906F905F904F903F902F900F9055
:101370000FBE0F901F901895CF92DF92EF92FF92C1
:101380000F931F93E82FF92F05C001501109210970
:10139000310961F1908196239417B9F305C001508A
:1013A00011092109310911F1908196239413F7CF86
:1013B000C12CD12CE12CF12C0AC08FEFC81AD80A0D
:1013C000E80AF80A0C151D052E053F0579F0808105
:1013D0008623841791F36C2D7D2D8E2D9F2D1F91CB
:1013E0000F91FF90EF90DF90CF90089560E070E054
:1013F00080E090E01F910F91FF90EF90DF90CF90F1
:1014000008951092D8011092D70188EE93E0A0E0E1
:10141000B0E08093D9019093DA01A093DB01B093FF
:10142000DC0124E131E03093D6012093D50125EC95
:1014300030E03093E2012093E10124EC30E030937E
:10144000E4012093E30120EC30E03093E6012093A7
:10145000E50121EC30E03093E8012093E70122EC34
:1014600030E03093EA012093E90126EC30E030933C
:10147000EC012093EB011092EE011092EF0110921B
:10148000F0011092F1011092B5021092B402809313
:10149000B6029093B702A093B802B093B90286E265
:1014A00091E09093B3028093B2021092C90210921D
:1014B000C8021092CB021092CA021092CD02109272
:1014C000CC021092CF021092CE026091D0026E7FB9
:1014D0006D7F6093D0026695617081E0682789E036
:1014E0000E944C0361E089E00E947A03E6E0F1E0AB
:1014F000E491E093C202E2EFF0E0E491F0E0EE0F5D
:10150000FF1FE152FF4F859194919093C402809305
:10151000C30260E088E00E947A038091D00281FDDE
:1015200004C061E088E00E944C0388E08093BE0222
:10153000E5E0F1E0E491E093BF02E1EFF0E0E49157
:10154000F0E0EE0FFF1FEB52FF4F859194919093C7
:10155000C1028093C00284EF91E0A0E0B0E08093EC
:10156000920290939302A0939402B09395028AE022
:10157000E6E0F1E0A0EAB2E001900D928A95E1F791
:101580001092AA0282E08093AB021092B0021092F5
:10159000B1028093810283E08093820284E0809391
:1015A00083028EE890E00E94730580E990E00E943B
:1015B000730510927E0210927D0282E090E090937B
:1015C000800280937F0284E792E09093730280937D
:1015D000720281E0809375028CE390E00E94FF101C
:1015E000FC018EE090E0918380838FEF9FEF9383E7
:1015F00082839583848382E090E0A0E0B0E0808FD6
:10160000918FA28FB38FDF015C96CF01C0961D92A0
:101610001D92A817B907D9F71586178216828EEE84
:1016200092E093878287148610AA11AA12AA13AA9D
:10163000148A158A168A178A80E092E095AB84ABEB
:1016400097AB86AB86E292E0918B808B91AF80AFB7
:1016500084E690E0938B828B81E082AF13AE178695
:101660001686F0937702E09376020895789484B515
:10167000826084BD84B5816084BD85B5826085BD8E
:1016800085B5816085BD80916E00816080936E001C
:10169000109281008091810082608093810080910E
:1016A00081008160809381008091800081608093BF
:1016B00080008091B10084608093B1008091B0007F
:1016C00081608093B00080917A00846080937A007A
:1016D00080917A00826080937A0080917A008160A4
:1016E00080937A0080917A00806880937A001092CB
:1016F000C10062E08AE00E947A0362E08BE00E940F
:101700007A0362E08CE00E947A0362E085E00E9446
:101710007A03E091E501F091E60182E08083E091B7
:10172000E101F091E2011082E091E301F091E40126
:101730008FEC80831092ED01E091E901F091EA01D4
:1017400086E08083E091E701F091E801808180618B
:101750008083E091E701F091E801808188608083D7
:10176000E091E701F091E801808180688083E09159
:10177000E701F091E80180818F7D80831092CD0296
:101780001092CC021092CB021092CA021092C9029F
:101790001092C8028DE991E09093CF028093CE021F
:1017A0009091BE02963108F047C02DEB30E03093A7
:1017B000C9022093C8022BE931E03093CB02209379
:1017C000CA022CE231E03093CD022093CC0220916A
:1017D000680084E0983048F031E09E3008F430E052
:1017E00081E001C0880F3A95EAF7822B8093680068
:1017F0002DE630E0983050F02BE630E09E3030F0AF
:101800002CE630E0963110F030E020E03093C60254
:101810002093C502292F30E0983008F08FC081E076
:1018200001C0880F9A95EAF78093C7028091CE0293
:101830009091CF020197F1F78091CC029091CD0267
:10184000892B49F1E091C701F091C80182E0E23BA8
:10185000F80709F1309739F0A389B4899C918589FB
:10186000809589238C938091D0028E7F8093D002C3
:101870001092C6011092C50182EB92E09093C801CC
:101880008093C701E091C502F091C60280819091DA
:10189000C702892B808368EE73E080E090E00E94AD
:1018A000FE0361E086E00E947A0360E087E00E9428
:1018B0007A03E0917602F09177028EE090E09183D6
:1018C00080838DE090E093838283F89486E292E0B7
:1018D000918B808B91AF80AF789410E000E0F12C79
:1018E000E12C809175028E151F04A9F1A4F1C0911D
:1018F0007602D0917702C00FD11F8A819B8197FD1C
:1019000007C061E00E947A0360E08A810E944C0374
:101910008C819D8197FD0CC061E00E947A03CC818F
:1019200061E08C2F0E947A0360E08C2F0E944C03B0
:10193000EFEFEE1AFE0A045C1F4FD3CF9E3040F447
:101940002850310981E001C0880F2A95EAF76CCF51
:101950002E503109F7CF0E94D9036053784F8F4F33
:101960009F4F609378027093790280937A029093EC
:101970007B0210927C0210927402109280001092EE
:1019800082008CE0809381008CE790E09093890046
:101990008093880082E080936F00789487E391E0E1
:1019A0000E940D0661E08DE00E947A0360E08DE008
:1019B0000E944C03C1E0C093A40282EB92E090939A
:1019C0008D0280938C028091920290919302A0915B
:1019D0009402B09195028854944FAF4FBF4F8093BB
:1019E000920290939302A0939402B093950270E0B8
:1019F00060E08CE00E943004C093B1020E94B50008
:101A00008823E1F38091920290919302A091940235
:101A1000B0919502885B9B40A109B1098093920225
:101A200090939302A0939402B093950268EC70E0B7
:101A300080E090E00E94FE031092B0028091AC0220
:101A4000843009F0FBC184EF91E0A0E0B0E0809326
:101A5000920290939302A0939402B09395026EE148
:101A600070E086E00E94300464E070E087E00E944D
:101A7000300462E070E089E00E94300468EC70E0BD
:101A800080E090E00E94FE0361E08DE00E944C0344
:101A9000F4E62F2E312C812C912C5401839451ED9E
:101AA000652E51E0752ECAE06AE0C62ED12C70E09A
:101AB000472E70E0572E0E94B60361E08FEB0E9424
:101AC0003F0549ECE42E41E0F42E10E000E0D0E0C8
:101AD00061E0809181020E944C0360E0809181026C
:101AE0000E944C03809182020E942303B501A4014D
:101AF000002E04C0440F551F661F771F0A94D2F7AB
:101B0000892B09F4A8C1D42B0F5F1F4F0830110592
:101B1000F9F6F701D1937F016E167F06B1F660E00A
:101B2000809183020E944C038BE090E00197F1F7D3
:101B30008091C901982F929597708F709C9F800D0E
:101B40001124809384028091CA01982F92959770F6
:101B50008F709C9F800D1124809385028091CB0112
:101B6000982F929593708F709C9F800D1124809375
:101B700086028091CE018770809387028091CC018C
:101B8000982F929593708F709C9F800D1124809355
:101B900088028091CD0184FB992790F98F709C9FDA
:101BA000800D1124809389028091CF01282F2295E6
:101BB0002F708F7090E02C9F800D911D1124805309
:101BC000984F90938B0280938A0260E086E00E9497
:101BD0004C0383E090E00197F1F761E086E00E941A
:101BE0004C038FE090E00197F1F760E086E00E94FF
:101BF0004C03E4E0F1E06491E0EFF0E08491E82F41
:101C0000F0E0EE0FFF1FEB52FF4F8591949100E43F
:101C100012E42FE030E0462F0E94BC0961157105E7
:101C20008105910529F06F5F7F4F8F4F9F4F9F7008
:101C300096958795779567950E94F60F27EC3BE47C
:101C40004BEE51E40E944E0F0E94C00F8B01072EF5
:101C5000000C880B990B4AE00E94A80589E591E0E9
:101C60000E940D0664E670E080E090E00E94FE03B2
:101C70008BE00E942303892B89F5C801B1010E94E2
:101C8000A410CB010E948C0468EE73E080E090E029
:101C90000E94FE03C801B6010E94A4108C01CB0172
:101CA000B6010E94A4100E948C0468EE73E080E0EC
:101CB00090E00E94FE03C8010E948C0468EE73E06D
:101CC00080E090E00E94FE038CE090E00E948C0493
:101CD00068EE73E080E090E00E94FE038AE00E94DC
:101CE0002303892B09F04EC0809186026C2F0E943D
:101CF000841090E00E948C0468EE73E080E090E035
:101D00000E94FE03809186026C2F0E948410892F0E
:101D100090E00E948C0468EE73E080E090E00E9406
:101D2000FE038AE090E00E948C0468EE73E080E09D
:101D300090E00E94FE03809185026C2F0E94841027
:101D400090E00E948C0468EE73E080E090E00E94D6
:101D5000FE03809185026C2F0E948410892F90E0F1
:101D60000E948C0468EE73E080E090E00E94FE0325
:101D70008BE090E00E948C0468EE73E080E090E0DD
:101D80000E94FE0385E00E942303892B51F484E125
:101D900090E00E948C0468E873E180E090E00E948B
:101DA000FE038CE00E942303892B51F48DE090E028
:101DB0000E948C0468E873E180E090E00E94FE03DA
:101DC000E0917602F091770206811781F89485857B
:101DD000158678948823A1F08CE591E00E940D0689
:101DE00089E791E00E948A05B801110F880B990BD1
:101DF00097FF34C00E94EC0584E391E00E948A05BD
:101E00006091860270E090E080E04AE00E94A805C0
:101E100084E391E00E948A0564E170E080E090E054
:101E20000E94FE034114510409F445CE0E9457025A
:101E3000882309F434CE0E9400002DCE84EC90E07B
:101E40000E94970583EA90E00E94970586E890E05B
:101E50000E949705FFCF4095D42356CE4AE00E94BA
:101E6000A805CACF86E291E09093B3028093B202B4
:101E70008091C7019091C801825B924071F4E0911A
:101E8000C502F091C60290818091C7028095892396
:101E900080831092C8011092C70108950E94620FBA
:101EA0000C944A100E94431058F00E943C1040F0DD
:101EB00029F45F3F29F00C94331051110C947E10DB
:101EC0000C9439100E945B1068F39923B1F35523E9
:101ED00091F3951B550BBB27AA276217730784073D
:101EE00038F09F5F5F4F220F331F441FAA1FA9F3D3
:101EF00035D00E2E3AF0E0E832D091505040E695C1
:101F0000001CCAF72BD0FE2F29D0660F771F881F21
:101F1000BB1F261737074807AB07B0E809F0BB0B14
:101F2000802DBF01FF2793585F4F3AF09E3F510528
:101F300078F00C9433100C947E105F3FE4F3983EDD
:101F4000D4F3869577956795B795F7959F5FC9F711
:101F5000880F911D9695879597F90895E1E0660F92
:101F6000771F881FBB1F621773078407BA0720F00B
:101F7000621B730B840BBA0BEE1F88F7E095089574
:101F80000E94C70F6894B1110C947E1008950E94AE
:101F9000631088F09F5798F0B92F9927B751B0F088
:101FA000E1F0660F771F881F991F1AF0BA95C9F7DD
:101FB00014C0B13091F00E947D10B1E008950C94EE
:101FC0007D10672F782F8827B85F39F0B93FCCF3A1
:101FD000869577956795B395D9F73EF4909580955A
:101FE000709561957F4F8F4F9F4F0895E89409C07A
:101FF00097FB3EF490958095709561957F4F8F4F3C
:102000009F4F9923A9F0F92F96E9BB279395F69551
:10201000879577956795B795F111F8CFFAF4BB0FCF
:1020200011F460FF1BC06F5F7F4F8F4F9F4F16C033
:10203000882311F096E911C0772321F09EE8872FBD
:10204000762F05C0662371F096E8862F70E060E079
:102050002AF09A95660F771F881FDAF7880F9695F2
:10206000879597F9089597F99F6780E870E060E099
:1020700008959FEF80EC089500240A941616170621
:1020800018060906089500240A9412161306140669
:1020900005060895092E0394000C11F4882352F0CC
:1020A000BB0F40F4BF2B11F460FF04C06F5F7F4F84
:1020B0008F4F9F4F089557FD9058440F551F59F06B
:1020C0005F3F71F04795880F97FB991F61F09F3F25
:1020D00079F087950895121613061406551FF2CF4E
:1020E0004695F1DF08C0161617061806991FF1CF9E
:1020F00086957105610508940895E894BB276627C5
:102100007727CB0197F90895991B79E004C0991FAF
:10211000961708F0961B881F7A95C9F78095089541
:10212000AA1BBB1B51E107C0AA1FBB1FA617B707FD
:1021300010F0A61BB70B881F991F5A95A9F7809519
:102140009095BC01CD01089597FB072E16F40094DD
:1021500007D077FD09D00E94901007FC05D03EF40F
:10216000909581959F4F0895709561957F4F089543
:10217000A1E21A2EAA1BBB1BFD010DC0AA1FBB1F8B
:10218000EE1FFF1FA217B307E407F50720F0A21BFD
:10219000B30BE40BF50B661F771F881F991F1A946A
:1021A00069F760957095809590959B01AC01BD0194
:1021B000CF010895052E97FB1EF400940E94F110A4
:1021C00057FD07D00E94B81007FC03D04EF40C94C2
:1021D000F11050954095309521953F4F4F4F5F4FEF
:1021E000089590958095709561957F4F8F4F9F4F83
:1021F0000895EE0FFF1F0590F491E02D09940F93C1
:102200001F93CF93DF938230910510F482E090E02A
:10221000E091D302F091D40230E020E0B0E0A0E001
:10222000309799F42115310509F44AC0281B390B60
:1022300024303105D8F58A819B816115710589F1BA
:10224000FB0193838283FE0111C040815181028191
:10225000138148175907E0F04817590799F4109768
:1022600061F012960C93129713961C933296CF013D
:10227000DF91CF911F910F9108950093D302109396
:10228000D402F4CF2115310551F04217530738F02D
:10229000A901DB019A01BD01DF01F801C1CFEF0106
:1022A000F9CF9093D4028093D302CDCFFE01E20FF9
:1022B000F31F819391932250310939832883D7CF1B
:1022C0002091D1023091D202232B41F420910201BE
:1022D000309103013093D2022093D102209100016A
:1022E000309101012115310541F42DB73EB74091E0
:1022F000040150910501241B350BE091D102F091AE
:10230000D202E217F307A0F42E1B3F0B2817390760
:1023100078F0AC014E5F5F4F2417350748F04E0F41
:102320005F1F5093D2024093D102819391939FCF2C
:10233000F0E0E0E09CCFCF93DF930097E9F0FC0161
:10234000329713821282A091D302B091D402ED0190
:1023500030E020E01097A1F420813181820F931F9B
:102360002091D1023091D2022817390709F061C0BB
:10237000F093D202E093D102DF91CF910895EA0168
:10238000CE17DF07E8F54A815B819E0141155105B3
:10239000B1F7E901FB83EA8349915991C40FD51F35
:1023A000EC17FD0761F4808191810296840F951FDF
:1023B000E90199838883828193819B838A83F0E0FA
:1023C000E0E012968D919C9113970097B9F52D91AD
:1023D0003C911197CD010296820F931F2091D1025B
:1023E0003091D2022817390739F6309751F51092FB
:1023F000D4021092D302B093D202A093D102BCCFE8
:10240000D383C28340815181840F951FC817D90798
:1024100061F44E5F5F4F88819981480F591F518346
:1024200040838A819B81938382832115310509F042
:10243000B0CFF093D402E093D3029ECFFD01DC0134
:10244000C0CF13821282D7CF10E0CAE8D0E004C018
:10245000FE010E94F9102196CB38D107C9F7F894F4
:02246000FFCFAC
:102462000000D50280007EFF06000100000000EFA0
:10247200000000008D02ED011A02DA024B0229026D
:102482003D0200000000A904ED013C05A804050579
:102492001B0590040D0A005765206372656174651F
:1024A2006420612070756C736553656E736F722062
:1024B2004F626A656374202100636D00E299A52072
:1024C20020412048656172744265617420486170E0
:1024D20070656E65642021200042504D3A20000054
:00000001FF
